:020000002628B0
:100008007E1480312100911E0A280B282428200004
:10001800911E0F281028242823001908F100063003
:1000280020002602031819281A2824282608203E0A
:1000380086008701710881000130F0007008A6076A
:100048007E10090027282000A001A101A201A30118
:10005800A401A501A6017E1020003228210019085C
:100068008739703899001A1E3A283B283728230008
:100078008C01843022009D000C15F83021008C0082
:10008800243023009E0090309D0048309F009C0142
:1000980044309B0024009401203095002000AC01DE
:1000A8002C08F400F501F435F50D153074078400BB
:1000B8000130753D803885000008F2002C08F600F4
:1000C800F701F635F70D1430760784000130773DD7
:1000D80080388500000881312E2180310130F400FC
:1000E80074082000AC070D302C02031C7C287D28E6
:1000F80054282930F5009630F4007F30890B822887
:10010800F40B8228F50B822800002000A901A90A17
:10011800F201290881312E2180310130F400740860
:100128002000A90709302902031C9B289C288C2839
:100138000B179112210091168B170630200026020A
:10014800031CA728A828A128A6010D3025060319F5
:10015800AE28AF28B5280A302506031DB428B528CF
:10016800A1288B132008F200013081312E21803123
:1001780020002108F200023081312E218031200038
:100188002208F200033081312E2180312000A7019E
:1001980015302302031CD128D228D4281430A300F8
:1001A800AA01A801AB01230827020318DC28DD28CF
:1001B800EA280130F4002B08073C890AE428F435C2
:1001C800890BE3287408F5007508A8040130F400C9
:1001D8007408AB070130F4007408A70708302B0235
:1001E800031CF728F828D7282808F2002A08043E14
:1001F80081312E2180310130F40074082000AA07D3
:1002080003302A02031C09290A29D52824080F3992
:10021800F2000A3081312E2180318B17A12826283F
:100228000C340134093400340A340F340B340534E7
:100238000F3400340134FF340234FF340334FF3404
:100248000434FF340534FF340634FF340734FF34F4
:100258000834FF34F30022000C11730824009100C5
:1002680036290000240014183A293B293529720838
:1002780091003F29000024001418432944293E29ED
:0602880022000C15080025
:020000040001F9
:08000000FF3FFF3FFF3FFF3F00
:04000E00843FFF3FED
:00000001FF
